O36498   DT0048910963        Clair Forshaw                      PO Box 2315 Stn Main                                                  LADYSMITH                BCV9G 1B8   CA 250210777720191107                  
I36498   DT0048910963        11843521                 Womens HLBOOTIE 100%¿POLYESTER¿ N/A               1    0004544USD6404199092CN                                                                               
I36498   DT0048910963        11965314                 Womens BOOT 100% TEXTILE N/A                      1    0005244USD6404199092CN                                                                               
I36498   DT0048910963        12002196                 Womens BOOTIE 100% TEXTILE N/A                    1    0004894USD6404199092VN                                                                               
I36498   DT0048910963        12089008                 Womens BOOT 100% POLYESTER N/A                    1    0005244USD6404199092CN                                                                               
P36498   DT0048910963        1002125890          00120095L                                                                                                                                                        
O36498   DT0049001992        Amber Faragher                     33 Athabasca St                                                       OSHAWA                   ONL1H 7H4   CA 905431530420191108                  
I36498   DT0049001992        11828804                 Womens JACKET 72% POLYESTER 26% COTTON KNIT       1    0004980USD6102300000CN                                                                               
I36498   DT0049001992        11897278                 Womens COMBAT 100%¿POLYURETHANE¿¿ N/A             1    0003894USD6402919030CN                                                                               
I36498   DT0049001992        11958104                 Womens BOOTIE 100% POLYURETHANE N/A               1    0004194USD6402919030CN                                                                               
P36498   DT0049001992        1002151914          00100015L                                                                                                                                                        
O36498   DT0049013402        Pamela Brochu                      Radiance                           42-8385 Delsom Way                 DELTA                    BCV4C 0A3   CA 604583020920191108                  
I36498   DT0049013402        10915125                 Womens SLEEP CHEMISE 95% RAYON 5% SPANDEX KNIT    1    0003004USD6108320090CN                                                                               
I36498   DT0049013402        11843521                 Womens HLBOOTIE 100%¿POLYESTER¿ N/A               1    0004544USD6404199092CN                                                                               
I36498   DT0049013402        11996912                 Womens COAT 95% POLYESTER 5% SPANDEX WOVEN        1    0008324USD6202130050US                                                                               
I36498   DT0049013402        12044027                 Womens DRESS 92% RAYON 8% SPANDEX KNIT            1    0004123USD6104420010US                                                                               
I36498   DT0049013402        12075717                 Womens DRESS 77% RAYON  23% POLYESTER KNIT        1    0005523USD6104440000CN                                                                               
I36498   DT0049013402        12075767                 Womens SLEEP TANK 96% RAYON 4% SPANDEX KNIT       1    0002023USD0000000000PH                                                                               
I36498   DT0049013402        12075853                 Womens DRESS 80% RAYON 20% NYLON KNIT             1    0005244USD6104440000CN                                                                               
I36498   DT0049013402        12141892                 Womens DRESS 95% POLYESTER 5% SPANDEX WOVEN       1    0004823USD6204430000CN                                                                               
I36498   DT0049013402        12165543                 Womens DRESS 72%RAYON 27%NYLON 2%LUREX SKIRT 100% 1    0004823USD6104440000CN RAYON KNIT                                                                    
I36498   DT0049013402        12165552                 Womens DRESS 73% RAYON 27% NYLON; SKIRT: 100% RAY 1    0004823USD6104440000CN N KNIT                                                                        
I36498   DT0049013402        548688-002               Womens JACKET 98% Cotton 2% Spandex WOVEN         1    0004123USD6202920090CN                                                                               
P36498   DT0049013402        1002154076          00190075L                                                                                                                                                        
O36498   DT0049021772        Caitlin Santos                     1672 98th St                                                          NORTH BATTLEFORD         SKS9A 0M8   CA 306441846820191108                  
I36498   DT0049021772        11833351                 Womens COAT 100% acrylic KNIT                     1    0005335USD6110300012CN                                                                               
I36498   DT0049021772        11843523                 Womens HLBOOTIE 100%¿POLYESTER¿ N/A               1    0003894USD6404199092CN                                                                               
I36498   DT0049021772        11962362                 Womens BOOTIE 100% POLYESTER UPPER N/A            1    0003894USD6404199092CN                                                                               
I36498   DT0049021772        11987862                 Womens CARDIGAN 100% ACRYLIC KNIT                 1    0004735USD6110300012CN                                                                               
I36498   DT0049021772        12069320                 Womens SWEATER 48% RAYON 48% POLYESTER 4% SPANDEX 1    0003294USD6110300082CN KNIT                                                                          
I36498   DT0049021772        12105712                 Womens WOMENS CAMI 100% POLYESTER WOVEN           1    0002335USD6211439000CN                                                                               
P36498   DT0049021772        1002155948          00110009L                                                                                                                                                        
T36498   191108A2B           000004000024000004                                                                                                                                                                   
